{
	"contracts/SolidityStorage.sol": {
		"SimpleStorage": {
			"abi": [
				{
					"inputs": [
						{
							"internalType": "uint256",
							"name": "_favoriteNumber",
							"type": "uint256"
						}
					],
					"name": "calculate",
					"outputs": [],
					"stateMutability": "pure",
					"type": "function"
				},
				{
					"inputs": [],
					"name": "retrieve",
					"outputs": [
						{
							"internalType": "uint256",
							"name": "",
							"type": "uint256"
						}
					],
					"stateMutability": "view",
					"type": "function"
				},
				{
					"inputs": [
						{
							"internalType": "uint256",
							"name": "_favoriteNumber",
							"type": "uint256"
						}
					],
					"name": "store",
					"outputs": [],
					"stateMutability": "nonpayable",
					"type": "function"
				}
			],
			"devdoc": {
				"methods": {}
			},
			"evm": {
				"assembly": "    /* \"contracts/SolidityStorage.sol\":27:669  contract SimpleStorage {\r... */\n  mstore(0x40, 0x80)\n  callvalue\n    /* \"--CODEGEN--\":8:17   */\n  dup1\n    /* \"--CODEGEN--\":5:7   */\n  iszero\n  tag_1\n  jumpi\n    /* \"--CODEGEN--\":30:31   */\n  0x00\n    /* \"--CODEGEN--\":27:28   */\n  dup1\n    /* \"--CODEGEN--\":20:32   */\n  revert\n    /* \"--CODEGEN--\":5:7   */\ntag_1:\n    /* \"contracts/SolidityStorage.sol\":27:669  contract SimpleStorage {\r... */\n  pop\n  dataSize(sub_0)\n  dup1\n  dataOffset(sub_0)\n  0x00\n  codecopy\n  0x00\n  return\nstop\n\nsub_0: assembly {\n        /* \"contracts/SolidityStorage.sol\":27:669  contract SimpleStorage {\r... */\n      mstore(0x40, 0x80)\n      callvalue\n        /* \"--CODEGEN--\":8:17   */\n      dup1\n        /* \"--CODEGEN--\":5:7   */\n      iszero\n      tag_1\n      jumpi\n        /* \"--CODEGEN--\":30:31   */\n      0x00\n        /* \"--CODEGEN--\":27:28   */\n      dup1\n        /* \"--CODEGEN--\":20:32   */\n      revert\n        /* \"--CODEGEN--\":5:7   */\n    tag_1:\n        /* \"contracts/SolidityStorage.sol\":27:669  contract SimpleStorage {\r... */\n      pop\n      jumpi(tag_2, lt(calldatasize, 0x04))\n      shr(0xe0, calldataload(0x00))\n      dup1\n      0x2e64cec1\n      eq\n      tag_3\n      jumpi\n      dup1\n      0x6057361d\n      eq\n      tag_4\n      jumpi\n      dup1\n      0xb9d92de8\n      eq\n      tag_5\n      jumpi\n    tag_2:\n      0x00\n      dup1\n      revert\n        /* \"contracts/SolidityStorage.sol\":382:471  function retrieve() public view returns(uint256) {\r... */\n    tag_3:\n      tag_6\n      tag_7\n      jump\t// in\n    tag_6:\n      mload(0x40)\n      dup1\n      dup3\n      dup2\n      mstore\n      0x20\n      add\n      swap2\n      pop\n      pop\n      mload(0x40)\n      dup1\n      swap2\n      sub\n      swap1\n      return\n        /* \"contracts/SolidityStorage.sol\":211:309  function store(uint256 _favoriteNumber) public {\r... */\n    tag_4:\n      tag_8\n      0x04\n      dup1\n      calldatasize\n      sub\n        /* \"--CODEGEN--\":13:15   */\n      0x20\n        /* \"--CODEGEN--\":8:11   */\n      dup2\n        /* \"--CODEGEN--\":5:16   */\n      lt\n        /* \"--CODEGEN--\":2:4   */\n      iszero\n      tag_9\n      jumpi\n        /* \"--CODEGEN--\":29:30   */\n      0x00\n        /* \"--CODEGEN--\":26:27   */\n      dup1\n        /* \"--CODEGEN--\":19:31   */\n      revert\n        /* \"--CODEGEN--\":2:4   */\n    tag_9:\n        /* \"contracts/SolidityStorage.sol\":211:309  function store(uint256 _favoriteNumber) public {\r... */\n      dup2\n      add\n      swap1\n      dup1\n      dup1\n      calldataload\n      swap1\n      0x20\n      add\n      swap1\n      swap3\n      swap2\n      swap1\n      pop\n      pop\n      pop\n      tag_10\n      jump\t// in\n    tag_8:\n      stop\n        /* \"contracts/SolidityStorage.sol\":558:666  function calculate(uint256 _favoriteNumber) public pure {\r... */\n    tag_5:\n      tag_11\n      0x04\n      dup1\n      calldatasize\n      sub\n        /* \"--CODEGEN--\":13:15   */\n      0x20\n        /* \"--CODEGEN--\":8:11   */\n      dup2\n        /* \"--CODEGEN--\":5:16   */\n      lt\n        /* \"--CODEGEN--\":2:4   */\n      iszero\n      tag_12\n      jumpi\n        /* \"--CODEGEN--\":29:30   */\n      0x00\n        /* \"--CODEGEN--\":26:27   */\n      dup1\n        /* \"--CODEGEN--\":19:31   */\n      revert\n        /* \"--CODEGEN--\":2:4   */\n    tag_12:\n        /* \"contracts/SolidityStorage.sol\":558:666  function calculate(uint256 _favoriteNumber) public pure {\r... */\n      dup2\n      add\n      swap1\n      dup1\n      dup1\n      calldataload\n      swap1\n      0x20\n      add\n      swap1\n      swap3\n      swap2\n      swap1\n      pop\n      pop\n      pop\n      tag_13\n      jump\t// in\n    tag_11:\n      stop\n        /* \"contracts/SolidityStorage.sol\":382:471  function retrieve() public view returns(uint256) {\r... */\n    tag_7:\n        /* \"contracts/SolidityStorage.sol\":422:429  uint256 */\n      0x00\n        /* \"contracts/SolidityStorage.sol\":449:463  favoriteNumber */\n      dup1\n      sload\n        /* \"contracts/SolidityStorage.sol\":442:463  return favoriteNumber */\n      swap1\n      pop\n        /* \"contracts/SolidityStorage.sol\":382:471  function retrieve() public view returns(uint256) {\r... */\n      swap1\n      jump\t// out\n        /* \"contracts/SolidityStorage.sol\":211:309  function store(uint256 _favoriteNumber) public {\r... */\n    tag_10:\n        /* \"contracts/SolidityStorage.sol\":286:301  _favoriteNumber */\n      dup1\n        /* \"contracts/SolidityStorage.sol\":269:283  favoriteNumber */\n      0x00\n        /* \"contracts/SolidityStorage.sol\":269:301  favoriteNumber = _favoriteNumber */\n      dup2\n      swap1\n      sstore\n      pop\n        /* \"contracts/SolidityStorage.sol\":211:309  function store(uint256 _favoriteNumber) public {\r... */\n      pop\n      jump\t// out\n        /* \"contracts/SolidityStorage.sol\":558:666  function calculate(uint256 _favoriteNumber) public pure {\r... */\n    tag_13:\n      pop\n      jump\t// out\n\n    auxdata: 0xa2646970667358221220fbf9446bde1e459ba708bd5e9a37a6631b618afa772c09d17c356d1840b84e9d64736f6c63430006000033\n}\n",
				"bytecode": {
					"linkReferences": {},
					"object": "608060405234801561001057600080fd5b5060ff8061001f6000396000f3fe6080604052348015600f57600080fd5b5060043610603c5760003560e01c80632e64cec11460415780636057361d14605d578063b9d92de8146088575b600080fd5b604760b3565b6040518082815260200191505060405180910390f35b608660048036036020811015607157600080fd5b810190808035906020019092919050505060bc565b005b60b160048036036020811015609c57600080fd5b810190808035906020019092919050505060c6565b005b60008054905090565b8060008190555050565b5056fea2646970667358221220fbf9446bde1e459ba708bd5e9a37a6631b618afa772c09d17c356d1840b84e9d64736f6c63430006000033",
					"opcodes": "PUSH1 0x80 PUSH1 0x40 MSTORE CALLVALUE DUP1 ISZERO PUSH2 0x10 JUMPI PUSH1 0x0 DUP1 REVERT JUMPDEST POP PUSH1 0xFF DUP1 PUSH2 0x1F PUSH1 0x0 CODECOPY PUSH1 0x0 RETURN INVALID PUSH1 0x80 PUSH1 0x40 MSTORE CALLVALUE DUP1 ISZERO PUSH1 0xF JUMPI PUSH1 0x0 DUP1 REVERT JUMPDEST POP PUSH1 0x4 CALLDATASIZE LT PUSH1 0x3C JUMPI PUSH1 0x0 CALLDATALOAD PUSH1 0xE0 SHR DUP1 PUSH4 0x2E64CEC1 EQ PUSH1 0x41 JUMPI DUP1 PUSH4 0x6057361D EQ PUSH1 0x5D JUMPI DUP1 PUSH4 0xB9D92DE8 EQ PUSH1 0x88 JUMPI JUMPDEST PUSH1 0x0 DUP1 REVERT JUMPDEST PUSH1 0x47 PUSH1 0xB3 JUMP JUMPDEST PUSH1 0x40 MLOAD DUP1 DUP3 DUP2 MSTORE PUSH1 0x20 ADD SWAP2 POP POP PUSH1 0x40 MLOAD DUP1 SWAP2 SUB SWAP1 RETURN JUMPDEST PUSH1 0x86 PUSH1 0x4 DUP1 CALLDATASIZE SUB PUSH1 0x20 DUP2 LT ISZERO PUSH1 0x71 JUMPI PUSH1 0x0 DUP1 REVERT JUMPDEST DUP2 ADD SWAP1 DUP1 DUP1 CALLDATALOAD SWAP1 PUSH1 0x20 ADD SWAP1 SWAP3 SWAP2 SWAP1 POP POP POP PUSH1 0xBC JUMP JUMPDEST STOP JUMPDEST PUSH1 0xB1 PUSH1 0x4 DUP1 CALLDATASIZE SUB PUSH1 0x20 DUP2 LT ISZERO PUSH1 0x9C JUMPI PUSH1 0x0 DUP1 REVERT JUMPDEST DUP2 ADD SWAP1 DUP1 DUP1 CALLDATALOAD SWAP1 PUSH1 0x20 ADD SWAP1 SWAP3 SWAP2 SWAP1 POP POP POP PUSH1 0xC6 JUMP JUMPDEST STOP JUMPDEST PUSH1 0x0 DUP1 SLOAD SWAP1 POP SWAP1 JUMP JUMPDEST DUP1 PUSH1 0x0 DUP2 SWAP1 SSTORE POP POP JUMP JUMPDEST POP JUMP INVALID LOG2 PUSH5 0x6970667358 0x22 SLT KECCAK256 0xFB 0xF9 DIFFICULTY PUSH12 0xDE1E459BA708BD5E9A37A663 SHL PUSH2 0x8AFA PUSH24 0x2C09D17C356D1840B84E9D64736F6C634300060000330000 "
				},
				"gasEstimates": {
					"creation": {
						"codeDepositCost": "51000",
						"executionCost": "99",
						"totalCost": "51099"
					},
					"external": {
						"calculate(uint256)": "250",
						"retrieve()": "991",
						"store(uint256)": "20242"
					}
				},
				"methodIdentifiers": {
					"calculate(uint256)": "b9d92de8",
					"retrieve()": "2e64cec1",
					"store(uint256)": "6057361d"
				}
			},
			"userdoc": {
				"methods": {}
			}
		}
	}
}